:100000000C9435000C945D000C945D000C945D0024
:100010000C945D000C945D000C945D000C945D00EC
:100020000C945D000C945D000C945D000C945D00DC
:100030000C945D000C945D000C945D000C945D00CC
:100040000C94D9010C945D000C94BD020C945D00DD
:100050000C945D000C945D000C945D000C945D00AC
:100060000C945D000C945D00060411241FBECFEFBC
:10007000D4E0DEBFCDBF11E0A0E0B1E0ECE5F1E1FE
:1000800002C005900D92A832B107D9F711E0A8E29D
:10009000B1E001C01D92A23EB107E1F710E0CAE64F
:1000A000D0E004C02297FE010E94A808C836D107FC
:1000B000C9F70E94D2010C94AC080C940000EF9296
:1000C000FF920F931F9366EB73E080E090E00E9435
:1000D0003B020E942D029B01AC0180913A0190915C
:1000E0003B01A0913C01B0913D0179018A01E81AE0
:1000F000F90A0A0B1B0BE0923E01F0923F010093BC
:1001000040011093410120933A0130933B01409309
:100110003C0150933D01809138010E949F02AA2723
:1001200097FDA095BA2FBC01CD010E94100727E4CE
:1001300034E74FE45DE30E94C007609328017093A9
:10014000290180932A0190932B0180911B010E9429
:100150009F02AA2797FDA095BA2FBC01CD010E944E
:10016000100726EA30E844EB5DE30E94C0077B01FC
:100170008C0160932C0170932D0180932E0190933C
:100180002F0160913E0170913F018091400190915B
:1001900041010E9410079B01AC01C801B7010E94F8
:1001A000C0072091300130913101409132015091CE
:1001B00033010E940D0660933001709331018093EA
:1001C00032019093330120E030E041E655E40E9493
:1001D00075066093340170933501809336019093D6
:1001E00037018FEC91E04EEF50E060E070E020E0EE
:1001F00030E00E946C058FEC91E041E050E060E05F
:1002000070E020E030E00E946C058FEC91E060E04F
:1002100071E00E947704609128017091290180911A
:100220002A0190912B0120E030E040E251E40E944D
:100230007106882334F48FEC91E064E071E00E9451
:100240007704409128015091290160912A01709111
:100250002B018FEC91E00E9408068FEC91E066E0A4
:1002600071E00E94770460913401709135018091B2
:1002700036019091370120E030E04AE754E40E94D3
:100280007106882334F48FEC91E064E071E00E9401
:10029000770460913401709135018091360190911D
:1002A000370120E030E048EC52E40E9471068823D8
:1002B00034F48FEC91E064E071E00E947704609187
:1002C000340170913501809136019091370120E021
:1002D00030E040E251E40E947106882334F48FEC50
:1002E00091E064E071E00E947704609134017091C4
:1002F000350180913601909137010E94DD069B0106
:10030000AC018FEC91E0B9010E9464058FEC91E0A3
:100310006BE071E00E94770460912C0170912D01D7
:1003200080912E0190912F0120E030E040E251E4D5
:100330000E947106882334F48FEC91E064E071E050
:100340000E94770440912C0150912D0160912E0163
:1003500070912F018FEC91E00E9408068FEC91E0E4
:100360006FE071E00E9477048FEC91E064E171E04E
:100370000E9496041F910F91FF90EF9008958FECCB
:1003800091E040E855E260E070E00E94FA020E94CD
:100390002D0260933A0170933B0180933C0190934E
:1003A0003D0108950E9465020E94BF010E945F0006
:1003B000FDCF1F920F920FB60F9211242F933F93F0
:1003C0004F935F936F937F938F939F93AF93BF935D
:1003D00020914601309147014091480150914901D7
:1003E00070914A01DA01C9010296A11DB11D672F62
:1003F0006A5F6D3730F06D57DA01C9010396A11DB0
:10040000B11D60934A018093460190934701A093E8
:100410004801B09349018091420190914301A0911C
:100420004401B09145010196A11DB11D8093420187
:1004300090934301A0934401B0934501BF91AF91C4
:100440009F918F917F916F915F914F913F912F91EC
:100450000F900FBE0F901F9018958FB7F8942091B2
:1004600046013091470140914801509149018FBFA9
:10047000B901CA010895EF92FF920F931F937B0178
:100480008C018FB7F89440914601509147016091DB
:100490004801709149018FBF2FB7F89480914601B0
:1004A00090914701A0914801B09149012FBF841B51
:1004B000950BA60BB70BE816F9060A071B0760F7A2
:1004C0001F910F91FF90EF900895789484B582600A
:1004D00084BD84B5816084BD85B5826085BD85B5E8
:1004E000816085BDEEE6F0E0808181608083E1E897
:1004F000F0E0808182608083808181608083E0E899
:10050000F0E0808181608083E1EBF0E080818460B5
:100510008083E0EBF0E0808181608083EAE7F0E0B7
:10052000808184608083808182608083808181601B
:1005300080838081806880831092C10008958F70CD
:1005400090911D019295990F990F907C982B909303
:100550007C0080917A00806480937A0080917A0098
:1005600086FDFCCF2091780040917900942F80E0A7
:1005700030E0282B392BC90108951F920F920FB636
:100580000F9211242F933F934F935F936F937F9319
:100590008F939F93AF93BF93EF93FF934091C600C8
:1005A000E091CB01F091CC01CF01019660E870E0C1
:1005B0000E9442089C018091CD019091CE012817A4
:1005C000390739F0E55BFE4F40833093CC0120932F
:1005D000CB01FF91EF91BF91AF919F918F917F914F
:1005E0006F915F914F913F912F910F900FBE0F90A0
:1005F0001F9018955F926F927F928F929F92AF9209
:10060000BF92CF92DF92EF92FF920F931F93CF93FF
:10061000DF93EC013A014B01413281EA580787E050
:10062000680780E078070CF07FC060E472E48FE038
:1006300090E0A40193010E9477082150304040408F
:100640005040CA01B90122E030E040E050E00E9491
:10065000770859016A01A6019501209530954095CA
:10066000509594E0220F331F441F551F9A95D1F7E0
:1006700060E072E18AE790E00E947708CA01B90160
:100680002FEF30E040E050E00E942308A4019301E6
:100690000E947708C90181509F4F181619061CF453
:1006A000522E5A9403C055245394521A60E874E8A9
:1006B0008EE190E0A40193010E9477082150304020
:1006C00040405040CA01B90122E030E040E050E033
:1006D0000E947708209530954095509583E0220F31
:1006E000331F441F551F8A95D1F760E072E18AE7F6
:1006F00090E00E947708CA01B9012FEF30E040E096
:1007000050E00E942308A40193010E947708C901C8
:1007100081509F4F181619061CF4822F815002C079
:1007200081E0821B851500F5E885F98581E090E080
:100730000A8802C0880F991F0A94E2F7808360E854
:1007400074E88EE190E0A40193010E9477082150A3
:10075000304040405040CA01B90122E030E040E062
:1007600050E00E94770804C0E885F9851082950161
:10077000EC81FD813083EE81FF812083EA85FB855A
:10078000208141E050E0CA010E8402C0880F991F09
:100790000A94E2F7282B2083EA85FB852081CA0191
:1007A0000F8402C0880F991F0A94E2F7282B208338
:1007B000EA85FB858081088802C0440F551F0A9492
:1007C000E2F7842B8083DF91CF911F910F91FF90EF
:1007D000EF90DF90CF90BF90AF909F908F907F90E1
:1007E0006F905F900895FC01A085B18521898C915F
:1007F00090E0022E02C0959587950A94E2F780FF5B
:10080000F6CF0484F585E02D6083089582E291E0BF
:100810009093D0018093CF018BE491E09093D2012B
:100820008093D10185EC90E09093D4018093D30123
:1008300084EC90E09093D6018093D50180EC90E019
:100840009093D8018093D70181EC90E09093DA01E6
:100850008093D90186EC90E09093DC018093DB01DA
:1008600084E08093DD0183E08093DE0187E0809364
:10087000DF0185E08093E00181E08093E10108954C
:100880000F931F93CF93DF938C01EB0109C0219647
:10089000D801ED91FC910190F081E02DC8010995FE
:1008A00068816623A1F7DF91CF911F910F91089581
:1008B000EF92FF920F931F93CF93DF938C017B01F5
:1008C000EA010CC0D7016D917D01D801ED91FC9139
:1008D0000190F081E02DC80109952197209791F7AB
:1008E000DF91CF911F910F91FF90EF900895DC0160
:1008F000ED91FC910280F381E02D099508950F930D
:100900001F938C01DC01ED91FC910190F081E02DB1
:100910006DE00995D801ED91FC910190F081E02DF9
:10092000C8016AE009951F910F9108950F931F93D5
:100930008C010E947704C8010E947F041F910F91CF
:1009400008952F923F924F925F926F927F928F9273
:100950009F92AF92BF92CF92DF92EF92FF920F934E
:100960001F93DF93CF93CDB7DEB7A0970FB6F89460
:10097000DEBF0FBECDBF1C016A017B0141155105D1
:100980006105710549F4DC01ED91FC910190F08164
:10099000E02D60E3099554C0882499245401422E27
:1009A00055246624772401E010E00C0F1D1F080D6C
:1009B000191DC701B601A30192010E945508F80153
:1009C00060830894811C911CA11CB11CC701B60155
:1009D000A30192010E945508C901DA016C017D0151
:1009E000C114D104E104F104F1F681E0E82EF12C08
:1009F000EC0EFD1EE80CF91C3E010894611C711CF4
:100A0000D501C4010197A109B1096C01C818D90821
:100A100014C0F601EE0DFF1D60816A3010F4605DB8
:100A200001C0695CD101ED91FC910190F081E02D54
:100A3000C10109950894E108F1086E147F0449F793
:100A4000A0960FB6F894DEBF0FBECDBFCF91DF9159
:100A50001F910F91FF90EF90DF90CF90BF90AF90DC
:100A60009F908F907F906F905F904F903F902F90CE
:100A700008952AE00E94A1040895EF92FF920F9337
:100A80001F93CF93DF93EC017A018B0177FF0FC0A7
:100A9000E881F9810190F081E02D6DE209951095D2
:100AA0000095F094E094E11CF11C011D111DCE0194
:100AB000B801A7012AE00E94A104DF91CF911F9104
:100AC0000F91FF90EF900895AB01662757FD609559
:100AD000762F0E943D050895DC012115310541F472
:100AE000ED91FC910190F081E02D642F099508951E
:100AF0002A30310519F40E943D0508950E94A10491
:100B000008959F92AF92BF92CF92DF92EF92FF92A1
:100B10000F931F93CF93DF93EC017A018B01922EF9
:100B2000CB01BA0120E030E040E050E00E947106C5
:100B3000882364F4E881F9810190F081E02DCE01F1
:100B40006DE2099517FB109517F9109520E030E03C
:100B500040E05FE3AA240BC0CA01B90120E030E005
:100B600040E251E40E9475069B01AC01A394A914D4
:100B700098F3C801B7010E940D065B016C010E9449
:100B8000E2067B018C01CE01B801A7010E94390564
:100B9000992029F0CE0169E171E00E947704C80133
:100BA000B7010E940E079B01AC01C601B5010E946E
:100BB0000C0620C020E030E040E251E40E94C00773
:100BC0007B018C010E94DD065B016C01CC24B7FC2B
:100BD000C094DC2CCE01B601A5010E943D05C601E2
:100BE000B5010E9410079B01AC01C801B7010E942A
:100BF0000C069A949920F1F6DF91CF911F910F91F5
:100C0000FF90EF90DF90CF90BF90AF909F900895AE
:100C100022E00E94810508955058BB27AA270ED0D4
:100C200075C166D130F06BD120F031F49F3F11F4E3
:100C30001EF45BC10EF4E095E7FB51C1E92F77D1BB
:100C400080F3BA17620773078407950718F071F4E9
:100C50009EF58FC10EF4E0950B2EBA2FA02D0B013F
:100C6000B90190010C01CA01A0011124FF27591BF1
:100C700099F0593F50F4503E68F11A16F040A22FF7
:100C8000232F342F4427585FF3CF46953795279568
:100C9000A795F0405395C9F77EF41F16BA0B620B67
:100CA000730B840BBAF09150A1F0FF0FBB1F661FAE
:100CB000771F881FC2F70EC0BA0F621F731F841FF1
:100CC00048F4879577956795B795F7959E3F08F017
:100CD000B3CF9395880F08F09927EE0F97958795D6
:100CE0000895D9D008F481E008950CD00FC107D140
:100CF00040F0FED030F021F45F3F19F0F0C0511108
:100D000039C1F3C014D198F39923C9F35523B1F332
:100D1000951B550BBB27AA2762177307840738F06A
:100D20009F5F5F4F220F331F441FAA1FA9F333D0C9
:100D30000E2E3AF0E0E830D091505040E695001C7D
:100D4000CAF729D0FE2F27D0660F771F881FBB1F39
:100D5000261737074807AB07B0E809F0BB0B802D13
:100D6000BF01FF2793585F4F2AF09E3F510568F05F
:100D7000B6C000C15F3FECF3983EDCF386957795F3
:100D80006795B795F7959F5FC9F7880F911D969561
:100D9000879597F90895E1E0660F771F881FBB1FBD
:100DA000621773078407BA0720F0621B730B840B6A
:100DB000BA0BEE1F88F7E095089504D06894B1113E
:100DC000D9C00895BCD088F09F5790F0B92F9927CB
:100DD000B751A0F0D1F0660F771F881F991F1AF046
:100DE000BA95C9F712C0B13081F0C3D0B1E008950F
:100DF000C0C0672F782F8827B85F39F0B93FCCF390
:100E0000869577956795B395D9F73EF4909580953B
:100E1000709561957F4F8F4F9F4F0895E89409C05B
:100E200097FB3EF490958095709561957F4F8F4F1D
:100E30009F4F9923A9F0F92F96E9BB279395F69533
:100E4000879577956795B795F111F8CFFAF4BB0FB1
:100E500011F460FF1BC06F5F7F4F8F4F9F4F16C015
:100E6000882311F096E911C0772321F09EE8872F9F
:100E7000762F05C0662371F096E8862F70E060E05B
:100E80002AF09A95660F771F881FDAF7880F9695D4
:100E9000879597F90895990F0008550FAA0BE0E878
:100EA000FEEF16161706E807F907C0F0121613062C
:100EB000E407F50798F0621B730B840B950B39F46C
:100EC0000A2661F0232B242B252B21F408950A26D2
:100ED00009F4A140A6958FEF811D811D089597F912
:100EE0009F6780E870E060E008959FEF80EC0895D0
:100EF00000240A94161617061806090608950024F9
:100F00000A9412161306140605060895092E039472
:100F1000000C11F4882352F0BB0F40F4BF2B11F4E6
:100F200060FF04C06F5F7F4F8F4F9F4F089557FD45
:100F30009058440F551F59F05F3F71F04795880F47
:100F400097FB991F61F09F3F79F0879508951216DE
:100F500013061406551FF2CF4695F1DF08C016168A
:100F600017061806991FF1CF86957105610508943B
:100F70000895E894BB2766277727CB0197F9089552
:100F80000BD0C4CFB5DF28F0BADF18F0952309F0F5
:100F9000A6CFABCF1124EECFCADFA0F3959FD1F33C
:100FA000950F50E0551F629FF001729FBB27F00D17
:100FB000B11D639FAA27F00DB11DAA1F649F66276C
:100FC000B00DA11D661F829F2227B00DA11D621FBB
:100FD000739FB00DA11D621F839FA00D611D221F75
:100FE000749F3327A00D611D231F849F600D211D59
:100FF000822F762F6A2F11249F5750408AF0E1F0FC
:1010000088234AF0EE0FFF1FBB1F661F771F881F44
:1010100091505040A9F79E3F510570F060CFAACF84
:101020005F3FECF3983EDCF3869577956795B7952F
:10103000F795E7959F5FC1F7FE2B880F911D969559
:10104000879597F90895629FD001739FF001829F61
:10105000E00DF11D649FE00DF11D929FF00D839F47
:10106000F00D749FF00D659FF00D9927729FB00DE4
:10107000E11DF91F639FB00DE11DF91FBD01CF01F7
:101080001124089597FB092E07260AD077FD04D076
:1010900049D006D000201AF4709561957F4F0895CD
:1010A000F6F7909581959F4F0895A1E21A2EAA1BFD
:1010B000BB1BFD010DC0AA1FBB1FEE1FFF1FA21708
:1010C000B307E407F50720F0A21BB30BE40BF50B05
:1010D000661F771F881F991F1A9469F7609570958E
:1010E000809590959B01AC01BD01CF01089597FBC0
:1010F000092E05260ED057FD04D0D7DF0AD0001CDC
:1011000038F450954095309521953F4F4F4F5F4FA4
:101110000895F6F790958095709561957F4F8F4F64
:101120009F4F0895AA1BBB1B51E107C0AA1FBB1FFD
:10113000A617B70710F0A61BB70B881F991F5A9563
:10114000A9F780959095BC01CD010895EE0FFF1F82
:0C1150000590F491E02D0994F894FFCF75
:10115C00563A2000200020433A2000413A2000203B
:10116C004D3A20004D4F4445002E00010001000077
:08117C000000F30340045804D5
:00000001FF
